:060000000A128A110C280F
:10000800FE00030EF0000A08F1000A128A152F2BD1
:100018000A128A110F288313C030FD000930FE0030
:100028003530FF00B43084000A128A157E210A1286
:100038008A116F30FD001730FE00E030FF00653098
:1000480084000A128A157E210A128A110A128A115C
:10005800FF270A128A11FB00A0308400B4300A1668
:100068008A11C6270A128A114730840065300A1699
:100078008A11C6270A128A11F901FA0183010A12A4
:100088008A114628831203136B08BF006C08C0004E
:100098006D08C100C301C30AC2010A128A157B2276
:1000A8000A128A1183120313A4013F300A128A1517
:1000B800C9260A128A11323083120313B90039088B
:1000C800F20000300A128A15A6220A128A11343068
:1000D80083120313B9003908F20001300A128A1595
:1000E800A6220A128A11323083120313B900390882
:1000F800F20002300A128A15A6220A128A11343036
:1001080083120313B9003908F20003300A128A1562
:10011800A6220A128A110A3083120313A0000030A3
:10012800A1000A128A1568210A128A11730883121B
:100138000313A3007208A2000A128A1511240A12D6
:100148008A11831203132008B9003908C5006430E6
:100158004502031CB028B128B5286330B900390816
:10016800C50001300A128A1551220A128A11831217
:100178000313B9003908C6001030BC002730BD0091
:10018800FF30BC070318BD0AFF30BD073C0A031D3A
:10019800D1283D0A031DD128D228C4283E3046065E
:1001A800031DD728D828EF28FD30F2008830F30047
:1001B8003F300A128A152A220A128A11831203135F
:1001C8004508B9003908A4003F300A128A15C92623
:1001D8000A128A11BE2A3D304606031DF428F52866
:1001E8002029063042020318FA28FB282029420851
:1001F800B9003907B43E840083130008F200840A6A
:1002080000088403F3003F300A128A152A220A12D2
:100218008A11831203134508B9003908A4003F3036
:100228000A128A15C9260A128A1101308312031389
:10023800B9003908C207BE2A3B304606031D2529E6
:1002480026294C29420803192A292B294C2901302F
:10025800C2024208B9003907B43E8400831300087B
:10026800F200840A00088403F3003F300A128A155A
:100278002A220A128A11831203134508B900390881
:10028800A4003F300A128A15C9260A128A11BE2A0A
:100298004303031D50295129922937304606031973
:1002A800562957295D292F304606031D5C295D29EB
:1002B80092290A128A1541210A128A118630F600FB
:1002C8008830F700803083120313B9003908F8002A
:1002D8000A128A1500230A128A11F201C6300A127C
:1002E8008A11DF270A128A11F2010F300A128A11C5
:1002F800DF270A128A11A53083120313B900B90B3C
:1003080083298629023083120313B9003908C300F0
:100318001030B9003908C4001215BE2A0630430649
:10032800031D97299829BE2A1F304606031D9D29BB
:100338009E29BE2AF2290A128A1541210A128A1117
:100348003530F6008830F700803083120313B90087
:100358003908F8000A128A1500230A128A1108308F
:1003680083120313B9003908C3001530B9003908DE
:10037800C400BE2A4508B9003908A4000C300A1286
:100388008A15C9260A128A110A128A1541210A12E7
:100398008A110A3083120313B9003908C3001730D1
:1003A800B9003908C400BE2A4508B9003908A400B4
:1003B80012300A128A15C9260A128A110A128A15D7
:1003C80041210A128A110C3083120313B90039082B
:1003D800C3001930B9003908C400BE2A3E08B90064
:1003E800BA013A08003A0319FA29052A3908003AE5
:1003F80003199F29013A0319BE29033A0319D82979
:10040800052ABE2A4508B9003908A7003F300A1254
:100418008A1504260A128A11DC2A1211F2010C30FC
:100428000A128A11DF270A128A11A53083120313D0
:10043800B900B90B1D2A202A063083120313B9000C
:100448003908C3001330B9003908C4000A128A15E4
:1004580041210A128A11F2010C300A128A11DF278F
:100468000A128A11A53083120313B900B90B3A2A6C
:100478003D2A8312031312118F284408B900390842
:10048800A60046080A128A11E3220A128A11831268
:100498000313BA00BB013B08003A0319542ADC2AAB
:1004A8003A08023A0319112A133A0319202ADC2AB6
:1004B8004408B9003908A60046080A128A112E27EE
:1004C8000A128A1183120313BA003A08BE00DC2A02
:1004D8004408B9003908A60046080A128A11FA2504
:1004E8000A128A11DC2A44080A128A1596230A126B
:1004F8008A11113A031D812A822ADC2A0A128A15D6
:1005080041210A128A11063083120313B9003908EF
:10051800C3001330B9003908C4008F280A128A159D
:1005280041210A128A11F2010C300A128A11DF27BE
:100538000A128A11A53083120313B900B90BA22A33
:10054800A52A872A4408B9003908A60046080A12CD
:100558008A1182240A128A1183120313BA00BB017A
:100568003B08003A0319B92ADC2A3A08113A031958
:10057800922ADC2A831203134308B900BA013A0805
:10058800003A0319C82ADC2A3908013A0319062A4D
:10059800033A0319412A043A03195C2A0E3A03194B
:1005A8006C2A023A0319772A063A0319A62ADC2A82
:1005B80083120313C4018F280A128A110C2883128C
:1005C8000313AA0010302606031DEB2AEC2AFD2A85
:1005D8000530A7002708D5003330A7002708D30027
:1005E800D201E101E201E301E4013F30A70027085D
:1005F800AA005508031D012B022B042B0230812C65
:1006080037302A06031D092B0A2B2E2B04305202E1
:1006180003180F2B102B2E2B3430A7005208613EE5
:1006280084002708831380005208C63EA7002708C5
:10063800A4002A300A128A158D210A128A11013063
:1006480083120313A7002708D2070530A70027083D
:10065800D5004E2B2F302A06031D332B342B4E2B5F
:10066800043052020318392B3A2B4E2B3230A70094
:100678005208613E84002708831380005208C63E52
:10068800A7002708A4002A300A128A158D210A1209
:100698008A11232B04305206031D532B542B802C14
:1006A800AB01AC01831203132B080A128A15B72178
:1006B8000A128A1183120313A7002B085D3E8400D7
:1006C8002708831380000130AB070318AC0A0030F9
:1006D800AC072C08803AFF0080307F02031D762B80
:1006E80004302B02031C792B7A2B562B6130831292
:1006F8000313A7002708F2000430F3000030F400C9
:100708005D300A128A15D3230A128A1172087304FB
:10071800031D8F2B902B922B1130812C01308312CB
:100728000313D30230305306031D9B2B9C2B132C31
:10073800F2010C300A128A11DF270A128A11A53039
:1007480083120313A700A70BA72BAA2B5630F6007A
:100758008830F700803083120313A7002708F800B9
:100768000A128A1500230A128A114630F6008830C8
:10077800F700C03083120313A7002708F8000A12F5
:100788008A1500230A128A113C3083120313A7002A
:100798002708D400072CCA30A7002708A4000A306D
:1007A800F2000030F3005408A800A9012808F4005A
:1007B8002908F5000A128A1597270A128A11720861
:1007C800303E0A128A158D210A128A11CB30831203
:1007D8000313A7002708A4000A30F2000030F30032
:1007E8005408A800A9012808F4002908F5000A12ED
:1007F8008A154C250A128A117208303E0A128A1587
:100808008D210A128A11831203135408031D0D2C1B
:100818000E2CCF2B3330A7002708D300502C0A12F8
:100828008A1541210A128A119630F6008830F7009D
:10083800803083120313A7002708F8000A128A15CC
:1008480000230A128A11C03083120313A700270855
:10085800A40053080A128A158D210A128A117630CB
:10086800F6008830F700C13083120313A700270869
:10087800F8000A128A1500230A128A114D308312D1
:100888000313A9001930A8004F30A700A70B4A2C62
:10089800A80B4A2CA90B4A2C0A128A1541210A12C4
:1008A8008A118630F6008830F700803083120313EF
:1008B800A7002708F8000A128A1500230A128A11CD
:1008C800F201C6300A128A11DF270A128A11F201D0
:1008D8000F300A128A11DF270A128A11A5308312F3
:1008E8000313A700A70B762C792C83120313D201CC
:1008F8000530A7002708D50010300800831203131D
:10090800AA0019302606031D8A2C8B2C912CCC01A9
:10091800CD010130CA000030CB004D08803AFF00FD
:1009280080307F02031D9A2C04304C0203189D2C42
:100938009E2CC42C831203134A084B040319A52CBC
:10094800A62CC42CCA01CB010030F6008830F70071
:100958008030A7002708F8000A128A1500230A1217
:100968008A11F201C0300A128A11DF270A128A118D
:10097800F2010F300A128A11DF270A128A11012D9B
:10098800831203134D08803AFF0080307F02031D55
:10099800CF2C04304C02031CD22CD32C012D8312F3
:1009A80003134A084B04031DDA2CDB2C012D0130FC
:1009B800CA000030CB000A128A1541210A128A1196
:1009C800C130F6008830F700803083120313A70087
:1009D8002708F8000A128A1500230A128A11F20160
:1009E800C0300A128A11DF270A128A11F2010F3069
:1009F8000A128A11DF270A128A1137308312031369
:100A08002A06031D082D092D262D3430A7004C0871
:100A1800AB3E84002708831380004C080339C03E8E
:100A2800A7002708A4002A300A128A158D210A1265
:100A38008A11013083120313CC070318CD0A003042
:100A4800CD07412D2F302A06031D2B2D2C2D412D8E
:100A58003230A7004C08AB3E84002708831380007F
:100A68004C080339C03EA7002708A4002A300A1200
:100A78008A158D210A128A111D2D08304C064D0445
:100A8800031D472D482DF82DAF30A7002708F20089
:100A98000430F3000030F400AB300A128A15D32377
:100AA8000A128A1172087304031D5B2D5C2DC62D72
:100AB80083120313AB01AC01831203132B08AB3E63
:100AC800840083130008A7002708F2002B080A12E5
:100AD8008A15A6220A128A11013083120313AB0762
:100AE8000318AC0A0030AC072C08803AFF008030AD
:100AF8007F02031D812D04302B02031C842D852DBC
:100B0800602D0A128A1541210A128A11F2010C304D
:100B18000A128A11DF270A128A11A53083120313D9
:100B2800A700A70B952D982D2430F6008830F700E4
:100B3800803083120313A7002708F8000A128A15C9
:100B480000230A128A11CE30F6008830F700C03030
:100B580083120313A7002708F8000A128A15002336
:100B68000A128A114D3083120313A9001930A80004
:100B78004F30A700A70BBE2DA80BBE2DA90BBE2D6D
:100B88001130F92D0A128A1541210A128A11F2012F
:100B98000C300A128A11DF270A128A11A530831233
:100BA8000313A700A70BD62DD92D6630F600883081
:100BB800F700803083120313A7002708F8000A12F1
:100BC8008A1500230A128A11F630F6008830F700D9
:100BD800C03083120313A7002708F8000A128A15E9
:100BE80000230A128A11B62D10300800831203134D
:100BF800B6004E0A031D042E4F0A031D042E052EAF
:100C0800132EEE30F6008830F700C030A700270812
:100C1800F8000A128A1500230A128A112D2F15309E
:100C28002606031D182E192E1A2ED0012F3036062F
:100C3800031D1F2E202E3A2E4E08FF3EA7004F08F8
:100C48000318013EFF3EA8002808803A803C031D97
:100C58002F2E270850020318322E332E3A2E013039
:100C680083120313A7002708D007492E37308312B1
:100C780003133606031D412E422E492E5008031930
:100C8800462E472E492E0130D002B701B8010A304E
:100C980083120313A7002708F20050080A128A15C6
:100CA800A2210A128A11053E83120313A8002808FC
:100CB800B500370835070A128A15B7210A128A11B2
:100CC80083120313A70037082A3E840027088313DA
:100CD80080000130B7070318B80A0030B807380891
:100CE800803AFF0080307F02031D7C2E0A303702D5
:100CF800031C7F2E802E4B2EC03083120313A700B7
:100D08002708A4000A30F2000030F3005008A800B9
:100D1800A9012808F4002908F5000A128A154C25AB
:100D28000A128A117208303E0A128A158D210A1297
:100D38008A11C23083120313A7002708A4002A08C7
:100D48000A128A158D210A128A11C33083120313DD
:100D5800A7002708A4002B080A128A158D210A1259
:100D68008A11C43083120313A7002708A4003A305D
:100D78000A128A158D210A128A11C53083120313AB
:100D8800A7002708A4002C080A128A158D210A1228
:100D98008A11C63083120313A7002708A4002D0860
:100DA8000A128A158D210A128A11C7308312031379
:100DB800A7002708A4003A300A128A158D210A12C2
:100DC8008A11C83083120313A7002708A4002E082D
:100DD8000A128A158D210A128A11C9308312031347
:100DE800A7002708A4002F080A128A158D210A12C5
:100DF8008A11CB3083120313A7002708A4003008F8
:100E08000A128A158D210A128A11CC308312031313
:100E1800A7002708A40031080A128A158D210A1292
:100E28008A11CE3083120313A7002708A4003208C2
:100E38000A128A158D210A128A11CF3083120313E0
:100E4800A7002708A40033080A128A158D210A1260
:100E58008A11080083120313AA0013302606031D03
:100E6800362F372F382FD1012F302A06031D3D2F5B
:100E78003E2F4E2F023051020318432F442F4E2F7E
:100E88000130A7002708D1070A128A1541210A1242
:100E98008A115C2F37302A06031D532F542F5C2FDD
:100EA80051080319582F592F5C2F0130D102482FB0
:100EB80002308312031351020318632F642F9D2FEE
:100EC8008030A7002708A4002A300A128A158D212D
:100ED8000A128A11831203135108A7002707653ED7
:100EE800840083130008F600840A00088403F700CE
:100EF8008230A9002908F8000A128A1500230A126C
:100F08008A11831203135108A7002707673E84003C
:100F180083130008F600840A00088403F700C2302F
:100F2800A9002908F8000A128A1500230A128A1152
:100F3800DB2F02305106031DA22FA32FDB2F5108F0
:100F4800A7002707633E840083130008F600840A7D
:100F580000088403F7008230A9002908F8000A1263
:100F68008A1500230A128A11831203135108A70055
:100F78002707653E840083130008F600840A0008EA
:100F88008403F700C230A9002908F8000A128A155C
:100F980000230A128A11C03083120313A7002708FE
:100FA800A4002A300A128A158D210A128A11831286
:100FB800031351080800F5007218E32FE72F831276
:100FC80003130915EA2F8312031309117508880002
:100FD8008914A630F300F30BEF2F000083120313DC
:100FE80089101B30F4009E30F300F30BF92FF40B3B
:100FF800F92F00000800013445346E347434653428
:10100800723420346E34653477342034703461346B
:101018007334733477346F34723464340034203466
:101028002034543449344D34453420342034203469
:1010380020342034453420342034533450340034A0
:10104800503461347334733477346F3472346434A5
:1010580020346334683461346E34673465346434FE
:10106800003423342034543449344D344534203446
:101078002034203420342034453420342034533470
:101088005034003457346134693474342E342E3477
:1010980066346F3472342034363430347334653403
:1010A8006334003459346F34753420346134723405
:1010B8006534203442346C346F3463346B346534B3
:1010C80064340034503461347334733477346F3497
:1010D8007234643420346334683461346E34673471
:1010E8006534003441347434743465346D34703488
:1010F800743473342034723465346D346134693433
:101108006E340034203445344E345434453452342B
:101118002034503441345334533457344F345234D8
:1011280044340034573472346F346E3467342034A6
:10113800503461347334733477346F3472346434B4
:1011480000346334683461346E3467346534203471
:1011580070346134733473347734723464340034E3
:101168004C346F3467347334203463346C346534EE
:1011780061347234653464340034723465342D3427
:1011880065346E3474346534723420347034773492
:1011980064340034533475346334633465347334DD
:1011A8007334663475346C346C3479340034633495
:1011B8006C3465346134723420346C346F34673481
:1011C8000034563469346534773420346C346F34E1
:1011D800673400344E344F3420344C346F34673421
:1011E800733400344634413449344C34453444343F
:1011F8000034433420340034473431340034473425
:10120800323400344734333400344734343400340F
:1012180043344C34003447344E340034433450346F
:101228000034473452340034FF1B222983137F18BB
:1012380083170008840A0319FF0A08007F087F390A
:101248008A000408840A0319FF0A8200831603131C
:101258008801091189100A128A15A1240A128A150F
:1012680008000F3489341534893400348934033440
:1012780089340634893409348934F20101300A1278
:101288008A11DF270A128A15A630F600F60B4A29BA
:1012980000000800831603131419532954294E29F2
:1012A80011081F39031D59295A294E29080083128C
:1012B800031312149214FA308316031392008C1439
:1012C8008312031312110800831203131F151F1929
:1012D8006E296F296B291E08F500831603131E0853
:1012E800F4007508F3007408F20008007E088A000C
:1012F8007F0882000A128A157A210A128A1580004C
:10130800840A04087D0603190034FF0A0319FE0A3B
:101318007E2983120313A500F20124080A128A11F8
:10132800DF270A128A15F201F20A8312031325082D
:101338000A128A11DF270A128A150800F500F4013B
:10134800751CA729A829AC297208F3007308F407AB
:101358000310F20D0310F50C7508031DB429B52907
:10136800A42974080800F3006400831603178C1876
:10137800BE29BF29B8297308831203178D003F308F
:10138800F2007208831603178C050C1483120317D6
:101398000C08080000300A128A15D3220A128A158E
:1013A800F800780883120313A00020087F39F8009A
:1013B8007808A0002008F8007808F30000300A1226
:1013C8008A15E9210A128A150800F4000A168A11FA
:1013D800CE270A128A15D0300A168A11F5270A1262
:1013E8008A1574080A168A11F5270A128A157308CD
:1013F8000A168A11F5270A128A150A168A11D7279A
:101408000A128A150800F3000A128A154E210A12D8
:101418008A158316031391150A128A154E210A128A
:101428008A15831203131308F2007208F400730379
:10143800031D1F2A202A242A831603139116272AFC
:10144800831603139112111674080800F600760823
:10145800F4007408F5003A2A0130F4007408F5071E
:101468000130F2070318F30A0030F30773088312F8
:101478000313FF00720884000A128A1518210A1241
:101488008A15F40075088400740883138000000826
:10149800031D4F2A502A302A0800F3007308031D41
:1014A800562A572A5C2A8312031306083F397A2AD8
:1014B8003F30831203130605F2003F30720603190A
:1014C800662A672A6E2A7B0803196B2A6C2A6E2AF9
:1014D800FB01572A3F300605F2003F307206031D14
:1014E800762A772A792AFB01FB0A3F3008000A127C
:1014F8008A152A210A128A15003083120313AB00B9
:101508000130AA008630A900A030A8000A128A1566
:1015180062230A128A150A128A15CE210A128A151E
:101528000A168A11BF270A128A150A168A11B927BC
:101538000A128A150A128A155B210A128A150B17D4
:101548008B170800F400831603178C18AC2AAD2AF1
:10155800A72A7408831203178D0072088C003F3085
:10156800F3007308831603178C0583120313031003
:101578008B1FBF2AC02AC12A03148B138316031793
:101588000C1555308D00AA308D008C140C11831267
:101598000313031CD02AD12AD22A8B170800F6007D
:1015A8000A168A11CE270A128A15D0300A168A110D
:1015B800F5270A128A1576080A168A11F5270A12DB
:1015C8008A150A168A11EA270A128A15D1300A16CC
:1015D8008A11F5270A128A1500300A128A1507227D
:1015E8000A128A15F5007508F7000A168A11D72716
:1015F8000A128A1577080800F20178080A128A1177
:10160800DF270A128A151E2BF201F20A7708FF005B
:10161800760884000A128A1518210A128A150A12F5
:101628008A11DF270A128A150130F6070318F70A0C
:101638000030F707770883120313FF007608840049
:101648000A128A1518210A128A15003A031D2D2B31
:101658002E2B082B0800831203138C1C342B352BDC
:101668005B2B0130F9070318FA0A0030FA07E23059
:101678007906043003197A06031D432B442B5A2B91
:10168800F901FA01540803194A2B4B2B4E2B013050
:10169800D4025A2B5408031D522B532B5A2B55088E
:1016A8000319572B582B5A2B0130D5028C1071086F
:1016B8008A00700E8300FE0E7E0E0900831203134B
:1016C80094152808AC002908AD002A08AE002B089C
:1016D800AF0002300310AC0DAD0DAE0DAF0DFF3EE7
:1016E800031D6E2B2F08A3002E08A2002D08A100B1
:1016F8002C08A0000130A7003130A6002D30A5002D
:101708000030A4000A128A152F270A128A1583129C
:1017180003132008FF3E8316031393008312031359
:101728009416080083120313A30017302306031D21
:101738009E2B9F2BD22BFF30CE00FF30CF00FF30E7
:10174800A0002008EE00B430F6008830F7008030A2
:10175800A0002008F8000A128A1500230A128A1528
:10176800CE30F6008830F700C03083120313A00093
:101778002008F8000A128A1500230A128A154D302B
:1017880083120313A2001930A1004F30A000A00B50
:10179800CB2BA10BCB2BA20BCB2B11300800F700C6
:1017A800002C77088400831300080319DC2BDD2B39
:1017B800E92B720884000008F50077088400000807
:1017C80075060319E82BE92BF82B7208840000082A
:1017D800F500770884000008F60075087602F20024
:1017E800F301031CF303102C0130F5007508F7070B
:1017F8000130F5007508F2070130F3020030031CD0
:10180800F403F402730A031D0D2C740A031D0D2C36
:101818000E2CD52BF201F301080083120313A50146
:10182800A6012008210403191A2C1B2C522CA401F0
:10183800A40A292C01300310A00DA10DFF3E031DA1
:101848001F2C0130F6007608A407A11F2C2C2D2C84
:101858001E2C01300310A50DA60DFF3E031D2E2CD6
:1018680021082302031D3A2C20082202031C3D2CC8
:101878003E2C452C2008A2022108031CA303A30226
:10188800251401300310A10CA00CFF3E031D462CAB
:101898000130A402031D512C522C2D2C2608A10026
:1018A8002508A000080083120313A0002008F600F2
:1018B8007608A100832C0130F4020030031CF503E4
:1018C800F5027308F7007208F600F20A0319F30A22
:1018D8007708FF00760884000A128A1518210A1270
:1018E8008A15F800210884000130A10778088313BD
:1018F80080000008031D812C822C832C922C7408F4
:101908007504031D882C892C5F2C922C21088400D7
:10191800831380010130F6007608A1070130F40234
:101928000030031CF503F502740A031D9F2C750A89
:10193800031D9F2CA02C8A2C0800C330F700CD3043
:10194800F600F60BA52CF70BA52CF20133300A1282
:101958008A11DF270A128A151B30F7009E30F6001D
:10196800F60BB42CF70BB42C0000F20133300A123A
:101978008A11DF270A128A15A630F600F60BC22C48
:101988000000F20133300A128A11DF270A128A1581
:10199800CD2CCE2C0000F20138300A128A11DF2734
:1019A8000A128A15A630F600F60BD82C0000F201B0
:1019B80001300A128A11DF270A128A15A630F600AA
:1019C800F60BE42C0000F2010C300A128A11DF2712
:1019D8000A128A15A630F600F60BF02C0000080053
:1019E8000130F600760883120313EE070A306E06FC
:1019F800031DFF2C002D012DEE010A30F60076089C
:101A0800F2006E080A128A15A2210A128A15053EEA
:101A1800F700770883120313A000A101A2012D2D5E
:101A28002108A03E84000008F6007608F20020088D
:101A38000A128A15A6220A128A150130F6007608BB
:101A480083120313A0070130A1070318A20A00306C
:101A5800A2072108A03E840083130008031D352D2A
:101A6800362D142D4F08803AFF0080307F02031D69
:101A78003F2D09304E020318422D432D4B2D0130C6
:101A880083120313CE070318CF0A0030CF070800CC
:101A9800F801F51F502D512D582DF409F509F40AB8
:101AA8000319F50AF801F80AF31F5B2D5C2D612D67
:101AB800F209F309F20A0319F30A72087304031905
:101AC800662D672D962DF701F70A752D0130031045
:101AD800F20DF30DFF3E031D6B2D0130F600760865
:101AE800F707F31F782D792D6A2D73087502031DEA
:101AF8007F2D72087402031C822D832D892D720894
:101B0800F4027308031CF503F50201300310F30C0B
:101B1800F20CFF3E031D8A2D0130F702031D952D9F
:101B2800962D792D780803199A2D9B2DA02DF4094F
:101B3800F509F40A0319F50A7508F3007408F200A8
:101B4800080002300A128A15D3220A128A15831253
:101B58000313A0002008C70001300A128A15D322F7
:101B68000A128A1583120313A0002008C800003047
:101B78000A128A15D3220A128A1583120313A000A7
:101B88002008C9004708A00004300310A00CFF3E3D
:101B9800031DC92D20080339303EA1002108D600B5
:101BA80047080F39303EA0002008D7004808A00099
:101BB80004300310A00CFF3E031DDD2D200807395B
:101BC800303EA1002108D80048080F39303EA00057
:101BD8002008D9004908A00004300310A00CFF3EDB
:101BE800031DF12D20080739303EA1002108DA0035
:101BF80049080F39303EA0002008DB00DC0108004E
:101C080083120313AB001330F6008830F7008030DE
:101C1800A8002808F8000A128A1500230A128A1553
:101C28000A128A1563260A128A15831203132B08CF
:101C3800F6000030F700CB30A8002808F8000A1298
:101C48008A1500230A128A15CE3083120313A800BE
:101C58002808A4000A30F2000030F3002708A90081
:101C6800AA012908F4002A08F5000A128A159727FC
:101C78000A128A157208303E0A128A158D210A1234
:101C88008A15CF3083120313A8002808A4000A304D
:101C9800F2000030F3002708A900AA012908F4007F
:101CA8002A08F5000A128A154C250A128A157208A4
:101CB800303E0A128A158D210A128A1508000A1266
:101CC8008A15A5250A128A15C23083120313A600A5
:101CD8002608A40056080A128A158D210A128A15A8
:101CE800C33083120313A6002608A40057080A125B
:101CF8008A158D210A128A15C43083120313A6008F
:101D08002608A4003A300A128A158D210A128A156B
:101D1800C53083120313A6002608A40058080A1227
:101D28008A158D210A128A15C63083120313A6005C
:101D38002608A40059080A128A158D210A128A1544
:101D4800C73083120313A6002608A4003A300A12EB
:101D58008A158D210A128A15C83083120313A6002A
:101D68002608A4005A080A128A158D210A128A1513
:101D7800C93083120313A6002608A4005B080A12C0
:101D88008A158D210A128A15080083120313A800E8
:101D98000A128A15A5250A128A155630F200003053
:101DA800F3000630F4000030F500A0300A128A155E
:101DB80057240A128A15831203132808A500A601BE
:101DC8002508F2002608F3000230F4000030F50080
:101DD800A6300A128A1557240A128A150A30F20008
:101DE8000030F300831203132408A500A601250878
:101DF800F4002608F5000A128A1597270A128A1590
:101E08007208303E83120313A700270883160313B2
:101E1800A8000A30F2000030F300831203132408EC
:101E2800A500A6012508F4002608F5000A128A155F
:101E38004C250A128A157208303E83120313A70034
:101E4800270883160313A900AA010A128A15F42485
:101E58000A128A1508000030F6000030F50000303C
:101E6800F4000030F3008312031323082204210432
:101E780020040319402F412F8E2FF701F70A512F05
:101E88000130F2000310A00DA10DA20DA30DF20B5D
:101E9800462F0130F2007208F707A31F542F552F61
:101EA800442F0130F2000310F30DF40DF50DF60D7B
:101EB800F20B572F23082702031D6C2F2208260236
:101EC800031D6C2F21082502031D6C2F20082402F6
:101ED800031C6F2F702F7F2F2008A4022108031CDA
:101EE800210FA5022208031C220FA6022308031CA7
:101EF800230FA702731401300310A30CA20CA10C2A
:101F0800A00CFF3E031D802F0130F702031D8D2F0B
:101F18008E2F552F7608A3007508A2007408A1001B
:101F28007308A000080083120313A101F31F9D2F5B
:101F38009E2FA52FF209F309F20A0319F30AA1014A
:101F4800A10AF51FA82FA92FB22FF409F509F40A41
:101F58000319F50A0130F6007608A106A201A301CB
:101F6800720873040319B92FBA2FF12FA001A00A20
:101F7800C82F01300310F20DF30DFF3E031DBE2FD5
:101F88000130F6007608A007F31FCB2FCC2FBD2F0A
:101F980001300310A20DA30DFF3E031DCD2F7308C2
:101FA8007502031DD92F72087402031CDC2FDD2F64
:101FB800E42F7208F4027308031CF503F5022214D7
:101FC80001300310F30CF20CFF3E031DE52F013026
:101FD800A002031DF02FF12FCC2F21080319F52F94
:101FE800F62FFB2FA209A309A20A0319A30A2308A3
:081FF800F3002208F2000800CA
:102F72008316031306083F388600080083160313DE
:102F82009F17831203131F14080064008001840A30
:102F92000406031900340406C72F0A128A154E21AB
:102FA2000A168A1183160313111408000A128A15CD
:102FB2004E210A168A118316031311150800E534EF
:102FC2008834DB348834A53488344F344E340034AA
:102FD200FF340A168A11D7270A168A110A168A118D
:102FE200CE270A168A110800F2000A128A154E210B
:0E2FF2000A168A117208831203139300080056
:08400000FF3FFF3FFF3FFF3FC0
:02400E00FB3F76
:00000001FF
